:020000040800F2
:10000000B0040020010100087F1D0008131900083A
:100010007D1D00082D0700080121000800000000D8
:10002000000000000000000000000000E31D0008C8
:100030002F07000800000000E11D0008B91E00089D
:100040001B0100081B0100081B0100081B01000820
:100050001B0100081B0100081B0100081B01000810
:100060001B0100081B0100081B0100081B01000800
:100070001B0100081B0100081B0100081B010008F0
:100080001B0100081B0100081B0100081B010008E0
:100090001B0100081B0100081B0100081B010008D0
:1000A0001B0100081B0100081B0100081B010008C0
:1000B0001B0100081B0100081B0100081B010008B0
:1000C0001B0100081B0100081B0100081B010008A0
:1000D0001B0100081B010008F52000081B01000897
:1000E0001B0100081B0100081B010008DFF80CD0F1
:1000F00000F00AFB0048004761230008B00400201C
:100100000648804706480047FEE7FEE7FEE7FEE7B1
:10011000FEE7FEE7FEE7FEE7FEE7FEE70B1F00084F
:10012000ED000008202A04DB203A21FA02F0002129
:10013000704721FA02F3D040C2F1200291400843F7
:1001400019467047D2B201E000F8012B491EFBD2DC
:1001500070470022F6E710B513460A4604461946D2
:10016000FFF7F0FF204610BDF0B480EA0102D40F83
:100170004200B2EB410F02D20246084611464A0045
:1001800042D0C30DDDB2C1F3C752AD1A202D35DA0E
:10019000C1F3160141F4000204B15242C5F1200638
:1001A00002FA06F12A411044B3EBD05F23D0C4B168
:1001B000012DA0EBC35009DCF0BC4FF0004202EA75
:1001C000C352DBB200F5000000F0FBB9400000F1C3
:1001D000807000EBC350A0F1807040EAD1704900FC
:1001E00009E0490841EAC071A0EBC35000F50000E6
:1001F000400800EBC350F0BC00F0DAB961420122C4
:1002000002EB4101001BF6E7F0BC704781F00041B2
:10021000AAE780F00040A7E730B480EA010202F0CC
:10022000004530F0004221F0004013D090B1C30DE2
:10023000D40DC2F31601C0F31600E41A41F4000114
:1002400040F400027D34914201D3641C00E0490077
:10025000002C02DA30BC002070474FF4000000236D
:10026000914201D3891A034340084FEA4101F7D173
:1002700051B1914202D14FF0004105E002D24FF05E
:10028000010101E06FF0010103EBC450284430BCD0
:1002900000F08EB9420005D0C0F3C75252429142DD
:1002A00001DC0020704700EBC15070472DE9FE4F84
:1002B000804681EA0300C00F0C46009021F0004107
:1002C00023F00045B8EB0200A94105D24046214683
:1002D00090461C460B46024623F00040104347D090
:1002E000270DC7F30A00C3F30A510290401A019088
:1002F00040286BDAC3F3130040F4801B0098924649
:1003000020B10023D2EB030A63EB0B0B0198594693
:10031000C0F14002504600F02AF906460D4650460C
:100320005946019A00F032F910EB080061410024AF
:1003300087EA115284EAE7731A4340D0009A62B305
:10034000019A012A4FEA075215DC001B61EB0201FA
:100350004FF0004202EA0752CDE90042001C41F58D
:10036000801132462B4600F069F903B0BDE8F08FEA
:1003700040462146F9E7001B61EB0201001C41F5F4
:10038000801300185B412018A2F5001747EB03010A
:1003900040EAD570B6196D4111E06D084FEA360696
:1003A00045EAC0754FEA0752001B61EB0201001CD1
:1003B00041F5801149084FEA300000195141324699
:1003C0002B4603B0BDE8F04F00F029B90098012298
:1003D00040000023D0EB020263EBE073009821465B
:1003E0004FEAE074B8EB000061EB0401E9E783F049
:1003F00000435BE781F0004158E72DE9FE4F81EAB9
:10040000030404F0004421F0004100944FF0000B7D
:1004100023F0004350EA01045ED052EA03045BD0AB
:10042000C3F30A54C1F30A552C44A4F2F3340194E3
:10043000A0FB0254C1F3130141F48011C3F3130371
:1004400043F4801301FB024400FB034E840A970A25
:1004500044EA815447EA8357A4FB076802958D0A52
:1004600005FB07854FEA932C04FB0C542705029DDE
:100470004FEA065847EA1637B5EB08056EEB070C4E
:10048000870E920E47EA811742EA8312A7FB020108
:10049000B6EB0B0164EB00042B0D43EA0C335E1842
:1004A00044EB1C50DA465146E7FB0201C5F3130446
:1004B0004FEA0B3343EA14534FEA0432019C43EAF8
:1004C0000603A4F10C040294009CCDE900B400F0F2
:1004D000B5F803B0BDE8F08F00200146F9E7C1F39D
:1004E0000A5210B5C1F3130140F2FF3341F48011F9
:1004F0009A4201DA002010BD40F233439A42A2F240
:10050000334203DC5242FFF70DFE10BD904010BD98
:1005100000F0004230F000400AD0C10D01F56071DA
:10052000C0F3160042EA0151C20840071143704768
:1005300000200146704701F0004330B421F0004133
:1005400050EA010206D00A0DA2F56072C1F3130150
:10055000002A02DC30BC00207047440F44EAC1048A
:10056000C100E01830BC00EBC25000F021B8202AD6
:1005700004DB203A00FA02F1002070479140C2F1FA
:10058000200320FA03F3194390407047202A06DB2A
:10059000CB17203A41FA02F043EAE07306E041FA51
:1005A00002F3D040C2F1200291400843194670473F
:1005B0000029A8BF7047401C490008BF20F0010077
:1005C000704710B4B0FA80FC00FA0CF050EA010455
:1005D00004BF10BC704749B1CCF1200421FA04F4E7
:1005E00011FA0CF118BF012121430843A3EB0C01C0
:1005F000CB1D4FEA00614FEA102042BF002010BC23
:10060000704700EBC35010440029A4BF10BC7047D2
:10061000401C490008BF20F0010010BC704710B515
:10062000141E73F1000408DA401C41F10001921815
:100630005B411A4301D120F0010010BD2DE9F04DBE
:1006400092469B4611B1B1FA81F202E0B0FA80F213
:1006500020329046FFF78BFF04460F4640EA0A001F
:1006600041EA0B0153465A46084313D0114653EA58
:10067000010019D0C8F140025046FFF753FD05466E
:100680000E46504659464246FFF771FF084305D0D3
:10069000012004E020463946BDE8F08D00200543E6
:1006A00046EAE0762C4337430A986305E40AA0EB58
:1006B00008000022FD0A44EA47540A3002D500200F
:1006C0000146E9E7010510196941DDE9084500190E
:1006D0006941BDE8F04DA2E730B5041E71F1000498
:1006E00004DB4FF00044404264EB0101141E73F13F
:1006F000000405DB1C464FF00043524263EB040349
:10070000994208BF904230BD064C074D06E0E068B4
:1007100040F0010394E8070098471034AC42F6D348
:10072000FFF7E8FC4424000864240008FEE7704753
:10073000704710B590F821100022022905D004213D
:10074000816380F82020012010BD01680B6823F030
:100750000E030B6001680B6823F001030B6090F837
:100760004030C46B012101FA03F3636080F821106B
:1007700080F82020104610BD10B590F821100024FC
:10078000022903D00421816301243DE001680A6845
:1007900022F00E020A6001680A6822F001020A6073
:1007A0001A4A0168914201D1012121E0174A14320D
:1007B000914201D110211BE0144A2832914201D10B
:1007C000891515E0114A3C32914201D189140FE09C
:1007D0000E4A5032914202D14FF4803108E00B4A68
:1007E0006432914202D14FF4801101E04FF08071E8
:1007F000064A083A5160012180F82110002180F852
:100800002010416B01B18847204610BD080002400E
:1008100070B5044600F0FEF80546601C02D004489E
:100820000078044400F0F6F8401BA042FAD370BDF3
:10083000040000202DE9F84FDFF8B891002409F1F9
:10084000040A0AF1040B23460F270BF1040EC9E03A
:100850000125A5402A40AA427DD1674ED1F804C0A7
:10086000ACEB0608B44532D014DCBCF1030F3AD02F
:1008700009DCBCF1000F2AD0BCF1010F1CD0BCF187
:10088000020F31D11DE0BCF1110F17D0BCF1120FD6
:100890002AD119E0B8F5881F19D006DCB8F5803FD9
:1008A00015D0B8F5801F1FD111E0B8F5001F0ED08C
:1008B000B8F5041F18D10AE0CB6815E0CB681B1D02
:1008C00012E0CB6808330FE0CB680C330CE08B6888
:1008D0002BB1012B4FF0080303D0456104E0042342
:1008E00002E0056100E00023FF2A01D8064601E08E
:1008F00000F104064FEA840501D9A5F12005D6F8D8
:10090000008007FA05FC28EA0C0803FA05F548EA16
:100910000508C6F800804D68ED0062D5374DAE6918
:1009200046F00106AE61AD6924F0030605F001054D
:100930000095334D06EB050CDCF80850A607360F82
:1009400007FA06F825EA0805DFF8B880404503D124
:100950004FF0000817E044E0DFF8AC80404502D1DA
:100960004FF001080FE0DFF8A480404502D14FF0BE
:10097000020808E0DFF89880404502D14FF00308F4
:1009800001E04FF0040808FA06F848EA0508CCF838
:1009900008804D68D9F80060ED034D4601D5164337
:1009A00000E096432E604D68DAF80060AD035546CE
:1009B00001D5164300E096432E604D68DBF80060D9
:1009C000ED025D4601D5164300E096432E604D686A
:1009D000DEF80060AD02754601D5164300E096438F
:1009E0002E60641C0D682A46E5407FF431AFBDE8F7
:1009F000F88F0000000401400000111000100240B8
:100A00000000014000080140000C014000100140BE
:100A10000014014001488068704700000400002075
:100A200070B5040025D094F83D00002520B984F865
:100A30003C50204600F070FA242084F83D002068E5
:100A4000016821F0010101602068016841F4004162
:100A500001602068016821F40041016000F0B8FBEA
:100A60004D4A6168914201D84C4900E04C498842A6
:100A700001D2012070BD4B492368B0FBF1F15E68E3
:100A800026F03F060E435E606368934206D94FF43A
:100A9000967359434FF47A73B1FBF3F12368491C01
:100AA0001E6A26F03F06314319626168914210D8F0
:100AB0004900401EB0FBF1F2521CC2F30B02042AA3
:100AC00001D2042022E0B0FBF1F0401CC0F30B0087
:100AD0001CE0A268F2B301EBC10303EB0116431E55
:100AE000B3FBF6F35B1C43F480431B0549D092B380
:100AF00001EBC10202EB0111401EB0FBF1F0401C02
:100B0000C0F30B0040F4804040F400402168CA6903
:100B10004CF6FF739A431043C861D4E907100143B0
:100B20002068026822F0C00211430160D4E9030189
:100B300001432068826848F2FF339A431143816081
:100B4000D4E9050108432168CA6822F0FF02104376
:100B5000C86001E00EE016E02068016841F0010184
:100B600001602564202084F83D00256384F83E5010
:100B7000002070BD01EB4106431EB3FBF6F35B1C86
:100B8000B3E70120C2E701EB4101401EB0FBF1F0E9
:100B9000401CC0F30B00B7E7A086010080841E0054
:100BA00000093D0040420F002DE9F84F0025DDF817
:100BB0002890984617468A4604460095FFF72AFF74
:100BC000064694F83D0020287AD119230122834952
:100BD0002046009600F0A0FF0028F5D194F83C00D4
:100BE00001286DD0012084F83C0020680168C90705
:100BF00003D1016841F0010101602068016821F41E
:100C000000610160222084F83D00102084F83E003D
:100C100025646762A4F82A80608D20857048E062B0
:100C200033464A465146204600F08CFE00287DD1CE
:100C3000208DDFF8B081202768B1012814D0022868
:100C4000206801681ED041F480610160206841691C
:100C500080690090B5E02068416981690091016870
:100C600041F400710160ACE02068016821F480610A
:100C7000016072B62068416981690091016841F4A0
:100C800000710AE041F40061016072B620684169B8
:100C900081690091016821F48061016062B690E091
:100CA000032868D801280CD002284B464FF00002D8
:100CB0004146204600960FD000F02EFFB0BB10E05A
:100CC0008AE032464946204600F0A5FF70BB206806
:100CD0000069616A08706BE000F01EFF30BB72B6FD
:100CE00034E02068016821F48061016072B62068F8
:100CF0000069616A0870606A401C6062208D401E55
:100D00002085608D401E6085374846F2A811006836
:100D1000B0FBF1F0C0EBC00000EB80000090401E83
:100D2000009008D020684069C04300E029E04007F7
:100D30000CD50098F3E744F8305F6773A57320691A
:100D400040F02000206162B625731AE02068016837
:100D500041F40071016020680069616A0870606A8E
:100D6000401C6062218D491E2185618D491E61856F
:100D700062B621681AE032464946204600F04BFF31
:100D800010B10120BDE8F88F20680069616A087021
:100D9000606A401C6062218D491E2185618D491E5B
:100DA000618521684A69D24352070AD409690170F2
:100DB000606A401C6062208D401E2085608D401E50
:100DC0006085208D00287FF46BAF84F83D7084F837
:100DD0003E5084F83C50D5E70220D3E702001000D3
:100DE0000000FFFF04000100100000202DE9F84F73
:100DF0001F4690468A460446DDF82890FFF70AFE13
:100E0000054694F83D0020287FD11923012240494E
:100E10002046009500F080FE002876D194F83C0032
:100E2000012872D0012084F83C0020680168C907BD
:100E300003D1016841F0010101602068016821F4DB
:100E400000610160212084F83D00102084F83E00FC
:100E500000262664C4F824806785608D20852D488F
:100E6000E0622B464A465146204600F0E1FD90B92B
:100E7000206841698069009036E02A46494620464C
:100E800000F0FCFE50B1206C042804D120680168F9
:100E900041F4007101600120BDE8F88F606A2168AB
:100EA00000780861606A401C6062618D491E61853E
:100EB000218D491E89B2218522685369DB435B0776
:100EC0000BD451B100781061606A401C6062608D83
:100ED000401E6085208D401E20852A4649462046BA
:100EE00000F0F4FD0028CED1208D0028C5D154F8A3
:100EF0003D0B016841F400710160202004F81E09D7
:100F0000E67766770020C7E7FFE70220C4E7000026
:100F1000020010000000FFFF10B586B00021009114
:100F200001910291039100680F4988421AD10F4C38
:100F3000A06940F00800A061A069694600F00800BF
:100F40000490C020009012200190032003900848D4
:100F5000FFF770FCE06940F40010E061E06900F424
:100F60000010049006B010BD005400400010024074
:100F7000000C01400248816802781144816070478A
:100F800004000020074810B5016841F0100101601D
:100F9000032000F075F8002000F006F800F024F8B7
:100FA000002010BD0020024070B50D4D04464FF4E6
:100FB0007A712878B1FBF0F00A490968B1FBF0F0CA
:100FC00000F0ECFA48B9102C07D200222146501E3E
:100FD00000F036F800206C6070BD012070BD00008C
:100FE00004000020100000200C4808B5816941F081
:100FF00001018161816901F001010091C16941F044
:101000008051C161C06900F080500090044841687F
:1010100021F0E06141F00071416008BD0010024024
:1010200000000140002809DB00F01F02012191406F
:101030004009800000F1E020C0F800117047000076
:10104000F0B40E4B1B680C46C3F30223C3F1070533
:10105000042D00D90425191D072901D2002300E021
:10106000DB1E012606FA05F1491E214099409E40EB
:10107000761E16403143F0BC01F043B80CED00E0A1
:10108000064900F0070208684FF6FF03184040EADF
:101090000220034A10430860704700000CED00E096
:1010A0000000FA052DE9F0470F46050061D0434ED8
:1010B000306800F00700B84209D2306820F007001D
:1010C00038433060306800F00700B84251D12868DA
:1010D0003B4C810712D5400703D5606840F4E060BF
:1010E00060602878000703D5606840F46050606055
:1010F0006068A96820F0F000084360602878C007A5
:1011000028D06868012810D02168022810D08907EB
:1011100000292EDA616821F0030101436160FFF7C5
:1011200079FC804641F288390DE021688903EFE7B8
:101130008901EDE7FFF76EFCA0EB0801494502D9F4
:101140000320BDE8F0876068696800F00C00B0EB30
:10115000810FEFD1306800F00700B8420BD930683A
:1011600020F0070038433060306800F00700B842D4
:1011700001D00120E5E72878400705D56068E968D7
:1011800020F4E060084360602878000706D56068B6
:10119000296920F4605040EAC100606000F038F82E
:1011A0006168084AC1F30311515CC84006490860F0
:1011B00006480068FFF7F8FE0020C2E70020024062
:1011C000001002402C24000810000020080000201D
:1011D0000448054900684968044AC1F30221515C8A
:1011E000C840704710000020001002403C24000856
:1011F0000448054900684968044AC1F3C221515CAA
:10120000C840704710000020001002403C24000835
:1012100012A185B00FC98DE80F0014A0144A006810
:1012200004905168134801F00C03042B10D0082BD4
:101230000ED1C1F38343C9031DF803000AD55168D9
:1012400004AAC1F34041515C0A4A5043B0FBF1F09B
:1012500005B0704708494843FAE700000203040557
:10126000060708090A0B0C0D0E0F101001020000F2
:101270000010024000127A0000093D002DE9F84FED
:10128000040070D02078C04DC00749D06868C0F312
:101290008100012807D06868C0F38100022809D1C5
:1012A0006868C00306D52868800339D560680028BF
:1012B000E7D035E06068B0F5803F0BD010B1B0F5F5
:1012C000A02F11D0286820F480302860286820F4EE
:1012D000802002E0286840F480302860606890B187
:1012E000FFF798FB06460AE0286840F48020286053
:1012F000F0E700BFFFF78EFB801B642873D82868D7
:101300008003F7D50CE0FFF785FB064605E000BF3C
:10131000FFF780FB801B6428F0D828688003F7D48F
:1013200020789A4E80074FF001094FF0000839D518
:10133000686810F00C0F07D06868C0F381000228BD
:1013400009D16868C00306D42868800714D52069CD
:10135000012808D110E02069B0B1C6F80090FFF76D
:1013600059FB074605E00AE1FFF754FBC01B0228C2
:10137000C4D828688007F7D52868616920F0F8008C
:1013800040EAC10028600DE0C6F80080FFF742FB8C
:10139000074604E0FFF73EFBC01B022823D828685D
:1013A0008007F7D4207800072CD57948A169D9B1F6
:1013B000C0F80090FFF72EFB074604E0FFF72AFB7A
:1013C000C01B02280FD8686A8007F7D571484FF410
:1013D000FA510068B0FBF1F0009000BF0098411E88
:1013E0000091FAD20EE080E0C0F80080FFF712FB17
:1013F000074604E0FFF70EFBC01B022875D8686A99
:101400008007F7D42078400760D5E8690027C0003E
:1014100008D4E86940F08050E861E869012700F0ED
:10142000805000905C480168C90513D40168834668
:1014300041F480710160FFF7EDFA824606E000BFDB
:10144000FFF7E8FAA0EB0A0064284ED8DBF80000AA
:10145000C005F5D5E06801280AD008B1052813D0E9
:10146000286A20F001002862286A20F0040002E0C7
:10147000286A40F001002862E06841F2883B98B198
:10148000FFF7C8FA82460BE0286A40F004002862A1
:10149000EEE700BFFFF7BEFAA0EB0A0159455AD8A4
:1014A000286A8007F6D50CE0FFF7B4FA824605E01B
:1014B000FFF7B0FAA0EB0A0159454CD8286A80071B
:1014C000F6D41FB1E86920F08050E861E06988B384
:1014D0006968C1F38101022944D00228C6F86080FE
:1014E00004D0FFF797FA044638E034E0FFF792FAA9
:1014F000074604E0FFF78EFAC01B02282BD82868A5
:101500008001F7D4206AB0F5803F05D16868A168F2
:1015100020F4003008436860D4E908010843696892
:1015200021F4741108436860C6F86090FFF772FAFE
:10153000044606E025E000BFFFF76CFA001B022816
:1015400009D828688001F7D51BE000BFFFF762FAD1
:10155000001B022802D90320BDE8F88F286880010B
:10156000F4D40EE00128F7D06868226A00F48031D4
:10157000914204D1616A00F47010884201D00120C8
:10158000EAE70020E8E700000010024000004242C5
:1015900080044242100000200070004010B5401E40
:1015A000B0F1807F01D3012010BD4FF0E0246061D5
:1015B0000F21601700F0A5FD0020A0610720206129
:1015C000002010BD70477047F8B5026804461068E7
:1015D000D168536910F00F0F4FF0000554D003F09D
:1015E000010601F4907737435FD0C20705D0CA05E2
:1015F00003D5226C42F001022264420705D5DA07C6
:1016000003D0226C42F002022264820705D5DA0779
:1016100003D0226C42F004022264020707D501F0D5
:101620002002324303D0226C42F008022264226C72
:10163000002A35D0800604D5880602D5204600F061
:1016400085FC20684069216CC0F3801001F008011E
:101650000143204625D000F061FC2068416949061D
:101660001BD5416921F040014161A06BA8B15849E7
:101670004163A06BFFF780F8002811D0A06B416B8D
:1016800001B0BDE8F040084783060ED58B060CD5A7
:101690002046BDE8F84000F059BC2046FFF793FF14
:1016A000F8BDFFF790FF2564F8BD266B2023012EBF
:1016B00052D1C60650D5CE064ED51068506800905F
:1016C000506940062AD5A16B086840680004000CE8
:1016D000EAD0A68D8642E7D9E0858869202818D00F
:1016E000D06820F48070D0602068416921F0010149
:1016F00041612068416921F04001416184F83E3038
:1017000025632068C16821F01001C160A06BFFF75C
:1017100010F8A08DE18D401A81B219E0A08DE18D05
:10172000401A81B2E08D0028BED00029BCD0D0681C
:1017300020F49070D0602068426922F0010242617A
:1017400084F83E3025632068C26822F01002C2602F
:101750002046FFF737FFF8BD05062BD50D0629D526
:1017600094F83D002128F6D1A068B0F5805F01D142
:101770002069B0B1206A411C21622168007848606C
:10178000E08C401E0004000CE084E4D12068C168B5
:1017900021F08001C1602068C16841F04001C16052
:1017A000F8BD206A0088C0F308005060206A801CE1
:1017B0002062E5E74006F3D54806F1D5D16820461A
:1017C00021F04001D16084F83D3000F0A1F8F8BD6F
:1017D0000D1F000870B5040004D094F83D000025EA
:1017E00010B106E0012070BD84F83C50204600F0A6
:1017F00023F8242084F83D002068C16821F40051BA
:10180000C160204600F0FEFB2068016921F4904190
:1018100001612068416921F02A0141612068C168A5
:1018200041F40051C1602564202084F83D0084F813
:101830003E00002070BD000030B585B0002400944B
:101840000194029403940068184988422BD11848E7
:10185000C16941F40031C161C16901F400310491F1
:10186000816941F0040181618069124D00F004003A
:101870000490042000900220019003200390694608
:101880002846FEF7D7FF0820CDE900046946284620
:101890000294FEF7CFFF002211462620FFF7D0FB6F
:1018A0002620FFF7BFFB05B030BD0000004400401C
:1018B000001002400008014090F83E30202B0ED16D
:1018C00059B152B190F83C30012B08D0012380F877
:1018D0003C300023036300F0F1BB0120704702207D
:1018E0007047000010B5012207490848FFF7E4FFE0
:1018F000054800210278401E302A01D0312A01D04B
:10190000017010BD0121FBE70300002068000020EA
:101910007047FEE701684A69D24352050FD46FF45D
:1019200080624A61002140F8301F20224273817397
:10193000026942F004020261017301207047002035
:10194000704700002DE9F84F0446C06A1E469346D2
:101950000D4621680A6842F480620A60082807D0B0
:10196000012805D010F5803F02D0206B112804D14A
:101970002068016841F4807101604FF001195B46F5
:10198000002249462046009600F0C6F84FF4007841
:1019900040B120680068C00501D5C4F8408003202C
:1019A000BDE8F88F2069DFF884A0B0F5804F0FD034
:1019B0000620216800EAD51747F0F0000861334699
:1019C0005A460AF10601204600F0DAF858BB03E057
:1019D000E8B240F001001CE02168E8B2086133463B
:1019E0005A465146204600F0CBF8E0B920684169DC
:1019F00081690091016841F4807101605B460022B9
:101A000049462046009600F087F80028C1D147F0EB
:101A1000F1002168086133465A465146204600F0DD
:101A2000AFF80028BCD00120BAE700000200010096
:101A3000F8B50446C06A1E460D461746082807D06A
:101A4000012805D010F5803F02D0206B122804D168
:101A50002068016841F480710160134600224FF054
:101A600001112046009600F057F840B12068006848
:101A7000C00502D54FF4007020640320F8BD206932
:101A8000B0F5804F0ED00620216800EAD51040F056
:101A9000F000086133463A460B49204600F070F8E2
:101AA00078B902E005F0FE0000E0E8B221680861C4
:101AB000054933463A46891F204600F061F8002860
:101AC000DCD00120F8BD00000800010070B516460A
:101AD0000D4604460DE02046FFF71CFF08B101202B
:101AE00070BD681C05D0FEF795FF801BA84207D883
:101AF00035B120684069C0434007ECD4002070BD78
:101B0000002044F8300F20216173A073216941F057
:101B1000200121612073E2E72DE9F0471E4690463F
:101B20000D460446C1F30747DDF8209008E0701C1D
:101B300006D0FEF76FFFA0EB0900B0420FD876B1D8
:101B40002068012F18D0806925EA00000004000CED
:101B500014D000214145EAD00020BDE8F0870020E4
:101B600044F8300F20216173A073216941F02001F6
:101B7000216120730120F0E74069E5E70121E9E7F1
:101B80002DE9F0479A4691460E46044600254FF04F
:101B90002008C1F3074725E020684069C04340059D
:101BA00014D42068016841F40071016021686FF469
:101BB00080604861256384F83D8084F83E50206C45
:101BC00040F00400206484F83C501FE0B9F1FF3F6E
:101BD00008D0FEF71FFFA0EB0A0149450CD8B9F168
:101BE000000F09D02068012F13D0806926EA000079
:101BF0000004000C0BD0CFE744F8305F84F80D8070
:101C0000A573206940F02000206125730120BDE804
:101C1000F0874069EAE72DE9F041002590460E463D
:101C20000446202717E04069C043C0060CD454F88E
:101C3000301B6FF01000486144F810596777A577A2
:101C4000206A2062257717E0FEF7E4FEA0EB08008B
:101C5000B04208D83EB120684169C9434906E2D480
:101C60000020BDE8F08144F8305F6773A5732069F8
:101C700040F02000206125730120F2E770B5164680
:101C80000D4604460DE02046FFF744FE08B1012052
:101C900070BD681C05D0FEF7BDFE801BA84207D8AA
:101CA00035B120684069C0430006ECD4002070BD07
:101CB000002044F8300F20216173A073216941F0A6
:101CC000200121612073E2E70D4808B5816941F0E8
:101CD00020018161816901F020010091816941F059
:101CE00004018161816901F004010091816941F081
:101CF00008018161806900F00800009008BD0000C3
:101D0000001002400D4810B50B4901600C494160BC
:101D100000214FF480428160C0E90312416181617A
:101D2000C1610162FEF77CFE002803D0BDE81040CF
:101D3000FEF7FEBC10BD000000540040140000205F
:101D4000A08601000C4810B50A4901604FF4E1314A
:101D50004160002181600C22C160C0E904128161F0
:101D6000C161FFF737FD002803D0BDE81040FEF742
:101D7000DFBC10BD0044004068000020FEE7704753
:101D8000AFF300800021084600F018B83EB542F2DB
:101D900010748DF80400012301AA802106480094E4
:101DA000FFF724F8012302AA802103480094FEF7DC
:101DB000FBFE9DF808003EBD140000201CB5022368
:101DC0008DF8040042F210708DF80510009001AA01
:101DD00080210248FFF70AF81CBD00001400002013
:101DE0007047704770B5044606200E4600EB84002D
:101DF0001546C9B2C0B2FFF7E1FF072000EB84002F
:101E0000C0B2C6F30721FFF7D9FF082000EB84001A
:101E1000E9B2C0B2FFF7D2FF092000EB8400C5F39E
:101E20000721BDE87040C0B2FFF7C8BF70B5FEF72C
:101E30006FFB1D4A1D4BFEF7E0FAFEF77CFB0446E4
:101E40001B486FF00B01FEF725FA2146FEF7E4F977
:101E50004FF07E51FEF7DAF9FEF75AFB0022154BE0
:101E6000FEF724FA00F06CF9FEF739FB0546002076
:101E7000FFF78CFF044600F07F0040F010010020C7
:101E8000FFF79CFFE9B2FE20FFF798FF21460020F4
:101E9000FFF794FF0220FEF7BBFC44F0A101BDE870
:101EA00070400020FFF78ABF713D0AD7A370ED3F55
:101EB00020BCBE4B0000E03FFFF75CB830B58FB0F0
:101EC00028216846FEF745F914210AA8FEF741F9D2
:101ED00001210804CDE90010002402940225049198
:101EE000CDE907504FF4E01009906846FFF7C6F9B6
:101EF0000F20CDE90A056802CDE90C4002210AA8AD
:101F00000E94FFF7CFF80FB030BD704710B5406AA0
:101F10000021C185C184FFF756FB10BD0168CA6866
:101F200022F49072CA6001684A6922F001024A6193
:101F3000016B012904D10168CA6822F01002CA604D
:101F4000202180F83E1000210163704708B590F809
:101F50003E10222901D0022008BD82684FF4805330
:101F60009A4201D1016921B1816A9A421BD04AB1DA
:101F70000AE00268816A5268C2F308020A80816A34
:101F8000891C08E0026972B10268526802F07F029F
:101F90000A70816A491C8162C18D491E0904090CBD
:101FA000C18503D019E002685268F1E70168CA6888
:101FB00022F02002CA600168CA6822F48072CA60F6
:101FC00001684A6922F001024A61202180F83E102E
:101FD000016B012903D0FFF785FC002008BD00211B
:101FE00001630168CA6822F01002CA6001680A68C9
:101FF000D20602D50A6849680091818DFFF7E2FA9E
:10200000EBE7000070B5044600680169E26821F45E
:102010004051114301612169A06808436169084387
:102020002168CA6841F20C639A430243CA6020687F
:102030004169A26921F44071114341611E49206840
:10204000884202D1FFF7D4F801E0FFF7C1F800EBB6
:10205000C00101EB0012606864218000B2FBF0F364
:10206000B3FBF1F36FF018067343B2FBF0F5B2FB6C
:10207000F0F605EB8305322303EB0515B5FBF1F50F
:10208000B6FBF1F605F0F00505EB0615B2FBF0F630
:10209000B2FBF0F0B0FBF1F06FF01802504306EB2A
:1020A000800003EB0010B0FBF1F0216800F00F009E
:1020B0002844886070BD000000380140816282853C
:1020C000C28500210164222280F83E2080F83C1065
:1020D0000168CA6842F48072CA6001684A6942F0C5
:1020E00001024A610068C16841F02001C16000201E
:1020F000704700000148FFF767BA00006800002041
:10210000FEE70907090E002804DB00F1E02080F853
:102110000014704700F00F0000F1E02080F8141D5B
:10212000704702E008C8121F08C1002AFAD17047A0
:102130007047002001E001C1121F002AFBD1704747
:102140002DE9F041C1F30A52A2F2FF362F4A304B7B
:102150000D460446142E2FDA002E12DAFEF7A6F8EA
:1021600000221346FEF7B8FA4CD2002DA4BF00247B
:10217000254647DA25F00040204318BF254D41D0C1
:1021800018E0DFF894C02CFA06F705EA070C5CEAC1
:10219000040C08BFBDE8F081FEF788F80022134662
:1021A000FEF79AFA2ED2002D03DA4FF48010F04099
:1021B0000544BD43002425E0332EC8BFBDE8F081AF
:1021C000A6F1140C4FF0FF3727FA0CF73C4208BF7A
:1021D000BDE8F081FEF70EF900221346FEF77CFA07
:1021E00010D2002D0DDA142E08BF6D1C09D0C6F1D7
:1021F0003400012101FA00F02044A04238BF6D1CD8
:102200000446BC4329462046BDE8F0819C75008801
:102210003CE4377E0000F0BFFFFF0F0070B54F4D6C
:1022200000240020297861433C3100F0F3F828783D
:102230006043C0F17801022000F0ECF82978042016
:1022400061433C3100F0E6F828786043C0F1780142
:10225000062000F0DFF868780F2C0CD86043662168
:1022600001EB4001012000F0D5F86878604355216A
:1022700001EB40010BE040006043C0F1A2010120EE
:1022800000F0C8F8687840006043C0F19101032075
:1022900000F0C0F85221052000F0BCF85A210720B8
:1022A00000F0B8F80520FEF7B3FA641CE4B21E2C67
:1022B000B7D9002428786043C0F17801002000F0ED
:1022C000A9F82978022061433C3100F0A3F828786E
:1022D0006043C0F17801042000F09CF829780620C2
:1022E00061433C3100F096F80F2C4FF066014FF03F
:1022F000010016D800F08EF85521032000F08AF86E
:10230000687852216043404201EB4001052000F013
:1023100081F868785A216043404201EB4001072070
:1023200011E000F077F85521032000F073F8687889
:10233000410061430520163100F06CF868784100D7
:10234000614307201E3100F065F80520FEF760FAB2
:10235000641CE4B21E2CADD970BD0000000000204A
:10236000FEF710FEFFF7AAFDFFF7AEFCFFF7CAFC71
:10237000FFF7E8FC0B4800F01BF801220A490B4864
:10238000FFF79AFA084C641E207820B900F019F87B
:102390000A20FEF73DFA20780128F5D1FFF73EFF2D
:1023A000F2E700000000484203000020680000201F
:1023B00010B50446FFF7E4FC2046BDE81040FFF7E7
:1023C00035BD10B55A21002000F024F86621012007
:1023D00000F020F85A21022000F01CF855210320BB
:1023E00000F018F80520FEF713FA5A21042000F037
:1023F00011F85221052000F00DF85A21062000F0B6
:1024000009F85A21072000F005F8BDE81040052022
:10241000FEF7FEB9B42908D209034FF4E162B1FB1B
:10242000F2F200216632FFF7DDBC704700000000C9
:102430000000000001020304060708090000000074
:1024400001020304642400080000002014000000BE
:102450002221000878240008140000209C040000B9
:1024600032210008020100000100000010000000FD
:08247000000000000024F4004C
:04000005080000ED02
:00000001FF
